S01900004C43445F5553494E475F4B4559424F52442E73726563E4
S11300000C942A000C943C000C943C000C943C008E
S11300100C943C000C943C000C943C000C943C006C
S11300200C943C000C943C000C943C000C943C005C
S11300300C943C000C943C000C943C000C943C004C
S11300400C943C000C943C000C943C000C943C003C
S11300500C943C0011241FBECFE5D4E0DEBFCDBF1D
S113006020E0A0E6B0E001C01D92A136B207E1F79E
S11300700E94B8000C94CC000C94000088BBA89893
S1130080A998AA9A87E893E10197F1F700C00000C4
S1130090AA9887E893E10197F1F700C0000008955A
S11300A08A3021F480EC0E943E00089588BBA89A0F
S11300B0A998AA9A87E893E10197F1F700C0000094
S11300C0AA9887E893E10197F1F700C0000008952A
S11300D0982F907F98BBA898A998AA9AE7E8F3E18B
S11300E03197F1F700C00000AA98E7E8F3E13197EF
S11300F0F1F700C00000F0E18F9FC001112488BB1C
S1130100A898A998AA9A87E893E10197F1F700C003
S11301100000AA98E7E8F3E13197F1F700C0000086
S11301200895CF93C62F843081F482E00E94680042
S113013088E20E9468008C2F0E94680081E00E947F
S11301403E0084E0809360000CC088E30E943E007F
S11301508C2F0E943E0081E00E943E0088E0809344
S11301606000CF9108955F9BFECF8CB15F9A089594
S1130170599A539A549A86E880BD10BC8CE089B988
S11301808FEF87BB84BB6EE088E00E9491000E94E1
S10F0190B3000E945000FBCFF894FFCF96
S9030000FC
